:03000000020003F8
:0C000300787FE4F6D8FD75812002004AE9
:04011000C101C180E8
:1000D900E4FDFCC3ED9FEC9E5015E4FBFA0BBB005D
:0F00E900010AEB647B4A70F50DBD00010C80E449
:0100F80022E5
:0F00F90053C9EF43CA1053B1F753B2F7C2B32242
:03011500D2B32240
:03011800C2B3224D
:10008F00E5C830E403D38001C39202A2023000011D
:10009F00B350367F0A7E001200D9E5C830E403D38F
:1000AF008001C39202A202300001B3501C20020A49
:1000BF00200107120115D201800B20020830010523
:0900CF00120118C201A202920004
:0100D8002205
:080108001200F912008F80FBC8
:10000F00020108E493A3F8E493A34003F68001F2FE
:10001F0008DFF48029E493A3F85407240CC8C333F2
:10002F00C4540F4420C8834004F456800146F6DFC1
:10003F00E4800B0102040810204080900110E47E40
:10004F00019360BCA3FF543F30E509541FFEE493B6
:10005F00A360010ECF54C025E060A840B8E493A37D
:10006F00FAE493A3F8E493A3C8C582C8CAC583CAA8
:10007F00F0A3C8C582C8CAC583CADFE9DEE780BE60
:0101140000EA
:00000001FF
